{
  "_format": "hh-sol-artifact-1",
  "contractName": "SimpleTweets",
  "sourceName": "contracts/SimpleTweets.sol",
  "abi": [
    {
      "inputs": [],
      "stateMutability": "nonpayable",
      "type": "constructor"
    },
    {
      "anonymous": false,
      "inputs": [
        {
          "indexed": true,
          "internalType": "address",
          "name": "from",
          "type": "address"
        },
        {
          "indexed": false,
          "internalType": "uint256",
          "name": "timestamp",
          "type": "uint256"
        },
        {
          "indexed": false,
          "internalType": "string",
          "name": "message",
          "type": "string"
        }
      ],
      "name": "NewTweet",
      "type": "event"
    },
    {
      "inputs": [],
      "name": "getAllTweets",
      "outputs": [
        {
          "components": [
            {
              "internalType": "address",
              "name": "tweeter",
              "type": "address"
            },
            {
              "internalType": "string",
              "name": "message",
              "type": "string"
            },
            {
              "internalType": "uint256",
              "name": "timestamp",
              "type": "uint256"
            }
          ],
          "internalType": "struct SimpleTweets.Tweet[]",
          "name": "",
          "type": "tuple[]"
        }
      ],
      "stateMutability": "view",
      "type": "function"
    },
    {
      "inputs": [],
      "name": "getTotalTweets",
      "outputs": [
        {
          "internalType": "uint256",
          "name": "",
          "type": "uint256"
        }
      ],
      "stateMutability": "view",
      "type": "function"
    },
    {
      "inputs": [
        {
          "internalType": "string",
          "name": "_message",
          "type": "string"
        }
      ],
      "name": "tweet",
      "outputs": [],
      "stateMutability": "nonpayable",
      "type": "function"
    }
  ],
  "bytecode": "0x60806040523480156200001157600080fd5b506200004160405180606001604052806025815260200162000e68602591396200004760201b620003951760201c565b620001db565b620000e7816040516024016200005e9190620001b7565b6040516020818303038152906040527f41304fac000000000000000000000000000000000000000000000000000000007bffffffffffffffffffffffffffffffffffffffffffffffffffffffff19166020820180517bffffffffffffffffffffffffffffffffffffffffffffffffffffffff8381831617835250505050620000ea60201b60201c565b50565b60008151905060006a636f6e736f6c652e6c6f679050602083016000808483855afa5050505050565b600081519050919050565b600082825260208201905092915050565b60005b838110156200014f57808201518184015260208101905062000132565b838111156200015f576000848401525b50505050565b6000601f19601f8301169050919050565b6000620001838262000113565b6200018f81856200011e565b9350620001a18185602086016200012f565b620001ac8162000165565b840191505092915050565b60006020820190508181036000830152620001d3818462000176565b905092915050565b610c7d80620001eb6000396000f3fe608060405234801561001057600080fd5b50600436106100415760003560e01c8063532561351461004657806393f11c2714610064578063fb46d4c514610082575b600080fd5b61004e61009e565b60405161005b919061083a565b60405180910390f35b61006c6101ef565b604051610079919061086b565b60405180910390f35b61009c600480360381019061009791906109cf565b61023a565b005b60606001805480602002602001604051908101604052809291908181526020016000905b828210156101e657838290600052602060002090600302016040518060600160405290816000820160009054906101000a900473ffffffffffffffffffffffffffffffffffffffff1673ffffffffffffffffffffffffffffffffffffffff1673ffffffffffffffffffffffffffffffffffffffff16815260200160018201805461014b90610a47565b80601f016020809104026020016040519081016040528092919081815260200182805461017790610a47565b80156101c45780601f10610199576101008083540402835291602001916101c4565b820191906000526020600020905b8154815290600101906020018083116101a757829003601f168201915b50505050508152602001600282015481525050815260200190600101906100c2565b50505050905090565b60006102326040518060400160405280601881526020017f5765206861766520256420746f74616c2074776565747321000000000000000081525060005461042e565b600054905090565b600160008082825461024c9190610aa8565b92505081905550610276604051806060016040528060298152602001610c1f6029913933836104ca565b600160405180606001604052803373ffffffffffffffffffffffffffffffffffffffff16815260200183815260200142815250908060018154018082558091505060019003906000526020600020906003020160009091909190915060008201518160000160006101000a81548173ffffffffffffffffffffffffffffffffffffffff021916908373ffffffffffffffffffffffffffffffffffffffff1602179055506020820151816001019080519060200190610335929190610592565b506040820151816002015550503373ffffffffffffffffffffffffffffffffffffffff167f247b19649778c81aad1923b4b49025b7eed6f664d6a4e802190bfb35724f95a9428360405161038a929190610b48565b60405180910390a250565b61042b816040516024016103a99190610b78565b6040516020818303038152906040527f41304fac000000000000000000000000000000000000000000000000000000007bffffffffffffffffffffffffffffffffffffffffffffffffffffffff19166020820180517bffffffffffffffffffffffffffffffffffffffffffffffffffffffff8381831617835250505050610569565b50565b6104c68282604051602401610444929190610b9a565b6040516020818303038152906040527fb60e72cc000000000000000000000000000000000000000000000000000000007bffffffffffffffffffffffffffffffffffffffffffffffffffffffff19166020820180517bffffffffffffffffffffffffffffffffffffffffffffffffffffffff8381831617835250505050610569565b5050565b6105648383836040516024016104e293929190610bd9565b6040516020818303038152906040527fe0e9ad4f000000000000000000000000000000000000000000000000000000007bffffffffffffffffffffffffffffffffffffffffffffffffffffffff19166020820180517bffffffffffffffffffffffffffffffffffffffffffffffffffffffff8381831617835250505050610569565b505050565b60008151905060006a636f6e736f6c652e6c6f679050602083016000808483855afa5050505050565b82805461059e90610a47565b90600052602060002090601f0160209004810192826105c05760008555610607565b82601f106105d957805160ff1916838001178555610607565b82800160010185558215610607579182015b828111156106065782518255916020019190600101906105eb565b5b5090506106149190610618565b5090565b5b80821115610631576000816000905550600101610619565b5090565b600081519050919050565b600082825260208201905092915050565b6000819050602082019050919050565b600073ffffffffffffffffffffffffffffffffffffffff82169050919050565b600061068c82610661565b9050919050565b61069c81610681565b82525050565b600081519050919050565b600082825260208201905092915050565b60005b838110156106dc5780820151818401526020810190506106c1565b838111156106eb576000848401525b50505050565b6000601f19601f8301169050919050565b600061070d826106a2565b61071781856106ad565b93506107278185602086016106be565b610730816106f1565b840191505092915050565b6000819050919050565b61074e8161073b565b82525050565b600060608301600083015161076c6000860182610693565b50602083015184820360208601526107848282610702565b91505060408301516107996040860182610745565b508091505092915050565b60006107b08383610754565b905092915050565b6000602082019050919050565b60006107d082610635565b6107da8185610640565b9350836020820285016107ec85610651565b8060005b85811015610828578484038952815161080985826107a4565b9450610814836107b8565b925060208a019950506001810190506107f0565b50829750879550505050505092915050565b6000602082019050818103600083015261085481846107c5565b905092915050565b6108658161073b565b82525050565b6000602082019050610880600083018461085c565b92915050565b6000604051905090565b600080fd5b600080fd5b600080fd5b600080fd5b7f4e487b7100000000000000000000000000000000000000000000000000000000600052604160045260246000fd5b6108dc826106f1565b810181811067ffffffffffffffff821117156108fb576108fa6108a4565b5b80604052505050565b600061090e610886565b905061091a82826108d3565b919050565b600067ffffffffffffffff82111561093a576109396108a4565b5b610943826106f1565b9050602081019050919050565b82818337600083830152505050565b600061097261096d8461091f565b610904565b90508281526020810184848401111561098e5761098d61089f565b5b610999848285610950565b509392505050565b600082601f8301126109b6576109b561089a565b5b81356109c684826020860161095f565b91505092915050565b6000602082840312156109e5576109e4610890565b5b600082013567ffffffffffffffff811115610a0357610a02610895565b5b610a0f848285016109a1565b91505092915050565b7f4e487b7100000000000000000000000000000000000000000000000000000000600052602260045260246000fd5b60006002820490506001821680610a5f57607f821691505b60208210811415610a7357610a72610a18565b5b50919050565b7f4e487b7100000000000000000000000000000000000000000000000000000000600052601160045260246000fd5b6000610ab38261073b565b9150610abe8361073b565b9250827fffffffffffffffffffffffffffffffffffffffffffffffffffffffffffffffff03821115610af357610af2610a79565b5b828201905092915050565b600082825260208201905092915050565b6000610b1a826106a2565b610b248185610afe565b9350610b348185602086016106be565b610b3d816106f1565b840191505092915050565b6000604082019050610b5d600083018561085c565b8181036020830152610b6f8184610b0f565b90509392505050565b60006020820190508181036000830152610b928184610b0f565b905092915050565b60006040820190508181036000830152610bb48185610b0f565b9050610bc3602083018461085c565b9392505050565b610bd381610681565b82525050565b60006060820190508181036000830152610bf38186610b0f565b9050610c026020830185610bca565b8181036040830152610c148184610b0f565b905094935050505056fe2573206861732077617665642120776974682074686520666f6c6c6f77696e67206d6573736167653aa2646970667358221220075f52e8f09a509b6dccebc3e79485938e8d98173e2fcf61e68bb13370c6cef264736f6c63430008090033596f20796f2c204920616d206120636f6e747261637420616e64204920616d20736d617274",
  "linkReferences": {},
  "deployedLinkReferences": {}
}